:020000040000FA
:10000000680C0020B10800002D0C0000BF080000A3
:10001000C3080000C5080000C7080000C9080000A8
:10002000000000000000000000000000CB080000FD
:10003000CD08000000000000CF080000D10800003B
:10004000E50C0000D5080000150D0000D9080000DF
:10005000DB080000DD080000DF080000E108000008
:10006000A50C0000BD0C0000850A0000DD0A0000A0
:10007000EB0800006D0900006F090000610B000033
:10008000F3080000F5080000F7080000F908000078
:100090003D0C0000FD080000FF0800000109000001
:1000A0000309000005090000070900000909000014
:1000B0000B0900000D0900000F09000011090000E4
:1000C00013090000150900001709000019090000B4
:1000D0001B0900001D0900001F0900002109000084
:1000E0002309000025090000270900002909000054
:1000F0002B0900002D0900002F0900003109000024
:10010000330900003509000037090000350B0000F5
:100110005509000057090000590900005B0900005B
:100120005D0900005F09000061090000630900002B
:100130006509000067090000690900006B090000FB
:10014000450D00000000000000000000000000005D
:10015000000000000000000000000000000000009F
:10016000000000000000000000000000000000008F
:10017000000000000000000000000000000000007F
:10018000000000000000000000000000000000006F
:10089000000000000000000000000000DFF80CD0A5
:1008A00000F0A0F800480047850E0000680C00200A
:1008B000304880F30A883048804730480047FEE7D8
:1008C000FEE7FEE7FEE7FEE7FEE7FEE7FEE7FEE700
:1008D000FEE7FEE7FEE7FEE7FEE7FEE7FEE7FEE7F0
:1008E000FEE7FEE7FEE7FEE7FEE7FEE7FEE7FEE7E0
:1008F000FEE7FEE7FEE7FEE7FEE7FEE7FEE7FEE7D0
:10090000FEE7FEE7FEE7FEE7FEE7FEE7FEE7FEE7BF
:10091000FEE7FEE7FEE7FEE7FEE7FEE7FEE7FEE7AF
:10092000FEE7FEE7FEE7FEE7FEE7FEE7FEE7FEE79F
:10093000FEE7FEE7FEE7FEE7FEE7FEE7FEE7FEE78F
:10094000FEE7FEE7FEE7FEE7FEE7FEE7FEE7FEE77F
:10095000FEE7FEE7FEE7FEE7FEE7FEE7FEE7FEE76F
:10096000FEE7FEE7FEE7FEE7FEE7FEE7FEE7FEE75F
:10097000FEE7FEE768000020750C00009D080000FF
:100980002DE9F05F0546002092469B4688460646C4
:10099000814640241BE0284641464746224600F057
:1009A00042F853465A46C01A914110D31146184690
:1009B000224600F029F82D1A67EB01084F4622461F
:1009C0000120002100F020F817EB00094E41201E05
:1009D000A4F10104DFDC484631462A464346BDE81F
:1009E000F09F0000064C074D06E0E06840F0010370
:1009F00094E8070098471034AC42F6D3FFF752FF53
:100A00004C1200006C120000202A04DB203A00FA8D
:100A100002F1002070479140C2F1200320FA03F355
:100A2000194390407047202A04DB203A21FA02F053
:100A30000021704721FA02F3D040C2F12002914018
:100A400008431946704700004FF6FF73994202D1E0
:100A50000AB10C3005E0013107D1002A08BF704708
:100A60002C30016841F00101016070474A1C05D03B
:100A70004FF6FF72914203D1143000E03430016828
:100A80000846704710B542F20004C4F20004204644
:100A90004FF6FF71FFF7EAFFC0070AD004F5604088
:100AA000002100F0A3F820464FF6FF710122FFF766
:100AB000CBFF20464FF0FF31FFF7D8FFC00708BF3C
:100AC00010BD04F56040012100F090F820464FF081
:100AD000FF310122FFF7B8FF10BD000010B54DF245
:100AE0000004C4F2000420464FF6FF71FFF7BEFF7A
:100AF000C0070AD004F54050012100F077F82046E5
:100B00004FF6FF710122FFF79FFF20464FF0FF31A4
:100B1000FFF7ACFFC00708BF10BD04F5405000212F
:100B200000F064F820464FF0FF310122FFF78CFF00
:100B300010BD000080B50020C4F20100002100F0CB
:100B400055F803A000F070FB332000F06DF980BD74
:100B5000455854305F48616E646C65720D0000004A
:100B600080B50020C4F20100002100F03FF803A08E
:100B700000F05AFB0F2000F057F980BD4558543162
:100B8000355F48616E646C65720D000000687047E7
:100B90000021C4F20101884218BF70474FF0FF30B6
:100BA0004861C8614862C8624863002048600860C4
:100BB000704700000122836B02FA01F1194381633F
:100BC00070470000002A08BF7047826911438161A5
:100BD000704700000122036902FA01F143EA0102B1
:100BE0000261426822EA0101416070470122036903
:100BF00002FA01F143EA0102026102685140016018
:100C000070470000B0B51025C6F20005044628461E
:100C1000FFF7BCFF2060281DFFF7B8FF606005F1FB
:100C20000800FFF7B3FFA060B0BD000080B5002052
:100C3000C4F201000021FFF7D9FF80BD10B50024E8
:100C4000C4F2010420460021FFF7C4FF204604211E
:100C5000FFF7B0FF00F0F8F810BD0000002943F2E4
:100C60000001C4F200010A680CBF104322EA000030
:100C70000860704740F200004EF68851C0F2000054
:100C8000CEF2000141F8800C086840F47000086062
:100C900040F204004FF28001C2F20000C0F2FA21DB
:100CA0000160704780B50020C4F201000021FFF709
:100CB0009DFF4FF0804000F00FF880BD10B541F26D
:100CC0000004C4F2000404F570400121FFF78EFF18
:100CD000204600F001F810BDC16841F00101C1607B
:100CE0007047000080B54FF04020082100F062F806
:100CF000012808D14FF0402000F07EF801464FF067
:100D0000402000F07FF84FF04020022100F05AF818
:100D100080BD000010B545F20004C4F20004204676
:100D2000082100F047F8012806D1204600F064F8B9
:100D30000146204600F066F82046022100F042F805
:100D400010BD000010B54FF20004C4F200042046AC
:100D5000082100F02FF8012806D1204600F04CF8B9
:100D60000146204600F04EF82046022100F02AF805
:100D700010BD000010B5B0F1402F0ED04FF20001B1
:100D8000C4F2000188420AD045F20001C4F2000119
:100D9000884218BF10BD102403E0082401E04FF47E
:100DA000006420460121FFF759FF20460021FFF78C
:100DB00055FF10BDC06800EA9100002818BF01204F
:100DC00070470000C2681143C1607047002A826802
:100DD0000CBF22EA010111438160704740F200021A
:100DE000C2F2000212680B68B2FBF3F292000261D9
:100DF000097981607047000041688907FCD5006867
:100E0000C0B270474268D207FCD101607047000051
:100E100044F20401C4F200010A68D207FCD14FF089
:100E200040210860704700004EF28022C1B2CEF22D
:100E3000000242EAD10100F01F00012202FA00F094
:100E400021F00301086070474EF28020CEF20000CE
:100E50004FF48011016070474EF28020CEF2000006
:100E600001210160704700004EF20010CEF2000038
:100E7000012101607047000080B5C0B2FFF7C8FFD4
:100E800080BD00000020C4F20100FFF781FE4FF496
:100E9000E13000F017F807A000F046F807A000F0D6
:100EA00043F840F20804C2F2000400BF2046FFF7F6
:100EB000A9FEFBE7616263646500000068656C6C15
:100EC0006F00000080B500F00DF880BD80B54FF0D8
:100ED000402008210122FFF779FFFFF7BDFFFFF750
:100EE000C3FF80BDB0B582B004464FF04020FFF78D
:100EF00041FF0025C4F20105284604210122FFF725
:100F000061FE284608210122FFF75CFE03208DF8D0
:100F1000040069464FF040200094FFF75FFFFFF7A1
:100F2000D5FF02B0B0BD00000FB4054B10B503A94A
:100F3000044A029800F018F810BC5DF814FB000099
:100F4000790E00001400002002E008C8121F08C13A
:100F5000002AFAD170477047002001E001C1121F3A
:100F6000002AFBD1704700002DE9FF4F8DB09B4652
:100F70000F460446002606E025280BD05A460F9956
:100F80009047641C761C20780028F5D111B03046BB
:100F9000BDE8F08F0025A8460122984900E00543EE
:100FA00014F8013F203B02FA03F00842F7D1207801
:100FB0002E2817D114F8010F45F004052A280ED069
:100FC0006FF02F022078A0F1300109290AD808EB30
:100FD000880102EB410100EB0108641CF2E757F8BD
:100FE000048B641C20786C280DD004DC4C2812D0B3
:100FF0006A2811D104E074280DD07A280CD10AE0B7
:1010000045F4001507E0617845F48015814202D16E
:10101000641C05F58015641C2278692A45D008DC1B
:10102000002AB3D0582A69D0632A10D0642A08D184
:101030003BE0702A67D0732A13D0752A5CD0782AD7
:101040005CD010465A460F999047761CD3E017F8AB
:10105000040B8DF8000000208DF80100E946012006
:1010600003E057F8049B4FF0FF3069074FF000058D
:1010700001D40AE06D1C45450DDA8542FADB19F80A
:1010800005100029F6D106E06D1C8542FCDB19F83D
:1010900005100029F8D12E4404E019F8010B5A4636
:1010A0000F9990476D1EF8D2A5E00A200021CDE9E6
:1010B0000801C5F3025002280DD001CFC117031E4D
:1010C00071F100030DDA4FF0000CD0EB0C006CEB6B
:1010D00001012D2308E0FF1D27F00707F7E80201B3
:1010E000EDE72B0504D52B238DF8283001233BE0B9
:1010F000EB0739D02023F7E70A2000E01020002179
:10110000CDE9080107E01020002145F00405CDE9F4
:1011100008014FF00808C5F3025002280FD001CF94
:1011200000214FF0000A2B071FD5702A0DD0DDE9F2
:1011300008C38CF0100C5CEA030C0CD015E0FF1D0A
:1011400027F00707F7E80201EBE740228DF8282097
:101150004FF0010A0BE050EA010306D030238DF86E
:1011600028308DF8292002239A46582A04D024A238
:101170000DF120090B9209E026A2F9E7DDE9082329
:10118000FFF7FEFB0B9B9B5C09F8013D50EA010257
:10119000F4D1ADEB090020300890680701D44FF07E
:1011A00001080899884502DDA8EB010000E0002055
:1011B0008046002506E00AA85A46405D0F999047F0
:1011C0006D1C761C5545F6DB04E030205A460F991D
:1011D0009047761CB8F10001A8F10108F5DC05E0A4
:1011E00019F8010B5A460F999047761C0899481E2A
:1011F00008900029F4DC641CC5E600000928010001
:10120000303132333435363738396162636465667C
:10121000000000003031323334353637383941423E
:10122000434445460000000010B5044601E0FFF7C6
:1012300023FE14F8010B04490028F8D1BDE8104042
:101240000A20FFF719BE00001400002070120000F1
:101250000000002008000000480F00007812000085
:1012600008000020600C0000580F00000000000083
:0812700080F0FA0280F0FA029E
:040000050000089D52
:00000001FF
